{
  "address": "0xe7f1725E7734CE288F8367e1Bb143E90bb3F0512",
  "abi": [
    {
      "inputs": [
        {
          "internalType": "uint256",
          "name": "_discountRate",
          "type": "uint256"
        },
        {
          "internalType": "uint256",
          "name": "_startPrice",
          "type": "uint256"
        },
        {
          "internalType": "address",
          "name": "_token",
          "type": "address"
        }
      ],
      "stateMutability": "nonpayable",
      "type": "constructor"
    },
    {
      "inputs": [],
      "name": "auctionDuration",
      "outputs": [
        {
          "internalType": "uint256",
          "name": "",
          "type": "uint256"
        }
      ],
      "stateMutability": "view",
      "type": "function"
    },
    {
      "inputs": [],
      "name": "buy",
      "outputs": [],
      "stateMutability": "payable",
      "type": "function"
    },
    {
      "inputs": [],
      "name": "discountRate",
      "outputs": [
        {
          "internalType": "uint256",
          "name": "",
          "type": "uint256"
        }
      ],
      "stateMutability": "view",
      "type": "function"
    },
    {
      "inputs": [],
      "name": "expirationTime",
      "outputs": [
        {
          "internalType": "uint256",
          "name": "",
          "type": "uint256"
        }
      ],
      "stateMutability": "view",
      "type": "function"
    },
    {
      "inputs": [],
      "name": "getPrice",
      "outputs": [
        {
          "internalType": "uint256",
          "name": "",
          "type": "uint256"
        }
      ],
      "stateMutability": "view",
      "type": "function"
    },
    {
      "inputs": [],
      "name": "owner",
      "outputs": [
        {
          "internalType": "address payable",
          "name": "",
          "type": "address"
        }
      ],
      "stateMutability": "view",
      "type": "function"
    },
    {
      "inputs": [],
      "name": "reservedPrice",
      "outputs": [
        {
          "internalType": "uint256",
          "name": "",
          "type": "uint256"
        }
      ],
      "stateMutability": "view",
      "type": "function"
    },
    {
      "inputs": [],
      "name": "startPrice",
      "outputs": [
        {
          "internalType": "uint256",
          "name": "",
          "type": "uint256"
        }
      ],
      "stateMutability": "view",
      "type": "function"
    },
    {
      "inputs": [],
      "name": "startTime",
      "outputs": [
        {
          "internalType": "uint256",
          "name": "",
          "type": "uint256"
        }
      ],
      "stateMutability": "view",
      "type": "function"
    }
  ],
  "transactionHash": "0x51d5ff4eb4790ff65a89aa125ab3b193c102aa5c1f54332d0a80093ff3efcd8a",
  "args": [
    1,
    10,
    "0x5FbDB2315678afecb367f032d93F642f64180aa3"
  ],
  "numDeployments": 1,
  "solcInputHash": "bcce4a2a55f9118a6a72f92c598790e3",
  "bytecode": "0x6101206040523480156200001257600080fd5b50604051620010493803806200104983398181016040528101906200003891906200018a565b6104b04262000048919062000215565b60a081815250504260c081815250508260e081815250508161010081815250503373ffffffffffffffffffffffffffffffffffffffff1660808173ffffffffffffffffffffffffffffffffffffffff1681525050806000806101000a81548173ffffffffffffffffffffffffffffffffffffffff021916908373ffffffffffffffffffffffffffffffffffffffff16021790555050505062000250565b600080fd5b6000819050919050565b620000ff81620000ea565b81146200010b57600080fd5b50565b6000815190506200011f81620000f4565b92915050565b600073ffffffffffffffffffffffffffffffffffffffff82169050919050565b6000620001528262000125565b9050919050565b620001648162000145565b81146200017057600080fd5b50565b600081519050620001848162000159565b92915050565b600080600060608486031215620001a657620001a5620000e5565b5b6000620001b6868287016200010e565b9350506020620001c9868287016200010e565b9250506040620001dc8682870162000173565b9150509250925092565b7f4e487b7100000000000000000000000000000000000000000000000000000000600052601160045260246000fd5b60006200022282620000ea565b91506200022f83620000ea565b92508282019050808211156200024a5762000249620001e6565b5b92915050565b60805160a05160c05160e05161010051610d8a620002bf6000396000818161030501526107100152600081816102d701526106ec0152600081816101fa0152818161024501526102ac01526000818161033701526106c801526000818161021e01526104520152610d8a6000f3fe6080604052600436106100865760003560e01c806398d5fdca1161005957806398d5fdca14610137578063a6f2ae3a14610162578063da284dcc1461016c578063e6c0e6d514610197578063f1a9af89146101c257610086565b80630cbf54c81461008b5780631b55d216146100b657806378e97925146100e15780638da5cb5b1461010c575b600080fd5b34801561009757600080fd5b506100a06101ed565b6040516100ad919061083d565b60405180910390f35b3480156100c257600080fd5b506100cb6101f3565b6040516100d8919061083d565b60405180910390f35b3480156100ed57600080fd5b506100f66101f8565b604051610103919061083d565b60405180910390f35b34801561011857600080fd5b5061012161021c565b60405161012e9190610899565b60405180910390f35b34801561014357600080fd5b5061014c610240565b604051610159919061083d565b60405180910390f35b61016a610335565b005b34801561017857600080fd5b506101816106c6565b60405161018e919061083d565b60405180910390f35b3480156101a357600080fd5b506101ac6106ea565b6040516101b9919061083d565b60405180910390f35b3480156101ce57600080fd5b506101d761070e565b6040516101e4919061083d565b60405180910390f35b6104b081565b600181565b7f000000000000000000000000000000000000000000000000000000000000000081565b7f000000000000000000000000000000000000000000000000000000000000000081565b6000807f00000000000000000000000000000000000000000000000000000000000000004261026f91906108e3565b90506102d26040518060400160405280600581526020017f2d2d2d2d2d0000000000000000000000000000000000000000000000000000008152507f00000000000000000000000000000000000000000000000000000000000000004284610732565b6000817f00000000000000000000000000000000000000000000000000000000000000006103009190610917565b9050807f000000000000000000000000000000000000000000000000000000000000000061032e91906108e3565b9250505090565b7f00000000000000000000000000000000000000000000000000000000000000004210610397576040517f08c379a000000000000000000000000000000000000000000000000000000000815260040161038e906109b6565b60405180910390fd5b60006103a1610240565b9050803410156103e6576040517f08c379a00000000000000000000000000000000000000000000000000000000081526004016103dd90610a22565b60405180910390fd5b600081346103f49190610a71565b9050600082346104049190610aa2565b3461040f91906108e3565b905060008060009054906101000a900473ffffffffffffffffffffffffffffffffffffffff1673ffffffffffffffffffffffffffffffffffffffff166370a082317f00000000000000000000000000000000000000000000000000000000000000006040518263ffffffff1660e01b815260040161048d9190610b32565b602060405180830381865afa1580156104aa573d6000803e3d6000fd5b505050506040513d601f19601f820116820180604052508101906104ce9190610b7e565b9050808311156105d95760008054906101000a900473ffffffffffffffffffffffffffffffffffffffff1673ffffffffffffffffffffffffffffffffffffffff1663a9059cbb33836040518363ffffffff1660e01b8152600401610533929190610bcc565b6020604051808303816000875af1158015610552573d6000803e3d6000fd5b505050506040513d601f19601f820116820180604052508101906105769190610c2d565b503373ffffffffffffffffffffffffffffffffffffffff166108fc858361059d9190610917565b346105a891906108e3565b9081150290604051600060405180830381858888f193505050501580156105d3573d6000803e3d6000fd5b506106c0565b60008054906101000a900473ffffffffffffffffffffffffffffffffffffffff1673ffffffffffffffffffffffffffffffffffffffff1663a9059cbb33856040518363ffffffff1660e01b8152600401610634929190610bcc565b6020604051808303816000875af1158015610653573d6000803e3d6000fd5b505050506040513d601f19601f820116820180604052508101906106779190610c2d565b503373ffffffffffffffffffffffffffffffffffffffff166108fc839081150290604051600060405180830381858888f193505050501580156106be573d6000803e3d6000fd5b505b50505050565b7f000000000000000000000000000000000000000000000000000000000000000081565b7f000000000000000000000000000000000000000000000000000000000000000081565b7f000000000000000000000000000000000000000000000000000000000000000081565b6107ce8484848460405160240161074c9493929190610cd9565b6040516020818303038152906040527fa7a87853000000000000000000000000000000000000000000000000000000007bffffffffffffffffffffffffffffffffffffffffffffffffffffffff19166020820180517bffffffffffffffffffffffffffffffffffffffffffffffffffffffff83818316178352505050506107d4565b50505050565b6107eb816107e36107ee61080f565b63ffffffff16565b50565b60006a636f6e736f6c652e6c6f679050600080835160208501845afa505050565b61081a819050919050565b610822610d25565b565b6000819050919050565b61083781610824565b82525050565b6000602082019050610852600083018461082e565b92915050565b600073ffffffffffffffffffffffffffffffffffffffff82169050919050565b600061088382610858565b9050919050565b61089381610878565b82525050565b60006020820190506108ae600083018461088a565b92915050565b7f4e487b7100000000000000000000000000000000000000000000000000000000600052601160045260246000fd5b60006108ee82610824565b91506108f983610824565b9250828203905081811115610911576109106108b4565b5b92915050565b600061092282610824565b915061092d83610824565b925082820261093b81610824565b91508282048414831517610952576109516108b4565b5b5092915050565b600082825260208201905092915050565b7f41756374696f6e2074696d652068617320656c61707365640000000000000000600082015250565b60006109a0601883610959565b91506109ab8261096a565b602082019050919050565b600060208201905081810360008301526109cf81610993565b9050919050565b7f4e6f7420656e6f75676820657468000000000000000000000000000000000000600082015250565b6000610a0c600e83610959565b9150610a17826109d6565b602082019050919050565b60006020820190508181036000830152610a3b816109ff565b9050919050565b7f4e487b7100000000000000000000000000000000000000000000000000000000600052601260045260246000fd5b6000610a7c82610824565b9150610a8783610824565b925082610a9757610a96610a42565b5b828204905092915050565b6000610aad82610824565b9150610ab883610824565b925082610ac857610ac7610a42565b5b828206905092915050565b6000819050919050565b6000610af8610af3610aee84610858565b610ad3565b610858565b9050919050565b6000610b0a82610add565b9050919050565b6000610b1c82610aff565b9050919050565b610b2c81610b11565b82525050565b6000602082019050610b476000830184610b23565b92915050565b600080fd5b610b5b81610824565b8114610b6657600080fd5b50565b600081519050610b7881610b52565b92915050565b600060208284031215610b9457610b93610b4d565b5b6000610ba284828501610b69565b91505092915050565b6000610bb682610858565b9050919050565b610bc681610bab565b82525050565b6000604082019050610be16000830185610bbd565b610bee602083018461082e565b9392505050565b60008115159050919050565b610c0a81610bf5565b8114610c1557600080fd5b50565b600081519050610c2781610c01565b92915050565b600060208284031215610c4357610c42610b4d565b5b6000610c5184828501610c18565b91505092915050565b600081519050919050565b60005b83811015610c83578082015181840152602081019050610c68565b60008484015250505050565b6000601f19601f8301169050919050565b6000610cab82610c5a565b610cb58185610959565b9350610cc5818560208601610c65565b610cce81610c8f565b840191505092915050565b60006080820190508181036000830152610cf38187610ca0565b9050610d02602083018661082e565b610d0f604083018561082e565b610d1c606083018461082e565b95945050505050565b7f4e487b7100000000000000000000000000000000000000000000000000000000600052605160045260246000fdfea26469706673582212205c3ca1de0ad48bbe9cb9bbba9c7356c36f7c4e8c73cdd85db8eb99aba37a10ce64736f6c63430008140033",
  "devdoc": {
    "kind": "dev",
    "methods": {},
    "version": 1
  },
  "userdoc": {
    "kind": "user",
    "methods": {},
    "version": 1
  },
  "storageLayout": {
    "storage": [
      {
        "astId": 800,
        "contract": "contracts/DutchAuction.sol:DutchAuction",
        "label": "wfcoin",
        "offset": 0,
        "slot": "0",
        "type": "t_contract(WFCoin)995"
      }
    ],
    "types": {
      "t_contract(WFCoin)995": {
        "encoding": "inplace",
        "label": "contract WFCoin",
        "numberOfBytes": "20"
      }
    }
  }
}