{
  "address": "0xe7f1725E7734CE288F8367e1Bb143E90bb3F0512",
  "abi": [
    {
      "inputs": [
        {
          "internalType": "uint256",
          "name": "_discountRate",
          "type": "uint256"
        },
        {
          "internalType": "uint256",
          "name": "_startPrice",
          "type": "uint256"
        },
        {
          "internalType": "address",
          "name": "_token",
          "type": "address"
        }
      ],
      "stateMutability": "nonpayable",
      "type": "constructor"
    },
    {
      "inputs": [],
      "name": "auctionDuration",
      "outputs": [
        {
          "internalType": "uint256",
          "name": "",
          "type": "uint256"
        }
      ],
      "stateMutability": "view",
      "type": "function"
    },
    {
      "inputs": [],
      "name": "buy",
      "outputs": [
        {
          "internalType": "uint256",
          "name": "",
          "type": "uint256"
        }
      ],
      "stateMutability": "payable",
      "type": "function"
    },
    {
      "inputs": [],
      "name": "claim",
      "outputs": [
        {
          "internalType": "uint256",
          "name": "",
          "type": "uint256"
        }
      ],
      "stateMutability": "payable",
      "type": "function"
    },
    {
      "inputs": [],
      "name": "discountRate",
      "outputs": [
        {
          "internalType": "uint256",
          "name": "",
          "type": "uint256"
        }
      ],
      "stateMutability": "view",
      "type": "function"
    },
    {
      "inputs": [],
      "name": "expirationTime",
      "outputs": [
        {
          "internalType": "uint256",
          "name": "",
          "type": "uint256"
        }
      ],
      "stateMutability": "view",
      "type": "function"
    },
    {
      "inputs": [],
      "name": "getPrice",
      "outputs": [
        {
          "internalType": "uint256",
          "name": "",
          "type": "uint256"
        }
      ],
      "stateMutability": "view",
      "type": "function"
    },
    {
      "inputs": [],
      "name": "owner",
      "outputs": [
        {
          "internalType": "address payable",
          "name": "",
          "type": "address"
        }
      ],
      "stateMutability": "view",
      "type": "function"
    },
    {
      "inputs": [],
      "name": "reservedPrice",
      "outputs": [
        {
          "internalType": "uint256",
          "name": "",
          "type": "uint256"
        }
      ],
      "stateMutability": "view",
      "type": "function"
    },
    {
      "inputs": [],
      "name": "startPrice",
      "outputs": [
        {
          "internalType": "uint256",
          "name": "",
          "type": "uint256"
        }
      ],
      "stateMutability": "view",
      "type": "function"
    },
    {
      "inputs": [],
      "name": "startTime",
      "outputs": [
        {
          "internalType": "uint256",
          "name": "",
          "type": "uint256"
        }
      ],
      "stateMutability": "view",
      "type": "function"
    }
  ],
  "transactionHash": "0x1b891b3458f166a5f1ab4378c77c25a914e08d25265c5e27da3120aaf7d20099",
  "args": [
    750000000000,
    1000000000000000,
    "0x5FbDB2315678afecb367f032d93F642f64180aa3"
  ],
  "numDeployments": 1,
  "solcInputHash": "d92ccea9e12ebf21e9f95ba00063faf5",
  "bytecode": "0x61014060405260006001553480156200001757600080fd5b5060405162000f7b38038062000f7b83398181016040528101906200003d9190620001c5565b6104b0426200004d919062000250565b60a081815250504260c081815250508260e081815250508161010081815250503373ffffffffffffffffffffffffffffffffffffffff1660808173ffffffffffffffffffffffffffffffffffffffff16815250508073ffffffffffffffffffffffffffffffffffffffff166101208173ffffffffffffffffffffffffffffffffffffffff168152505080600260006101000a81548173ffffffffffffffffffffffffffffffffffffffff021916908373ffffffffffffffffffffffffffffffffffffffff1602179055505050506200028b565b600080fd5b6000819050919050565b6200013a8162000125565b81146200014657600080fd5b50565b6000815190506200015a816200012f565b92915050565b600073ffffffffffffffffffffffffffffffffffffffff82169050919050565b60006200018d8262000160565b9050919050565b6200019f8162000180565b8114620001ab57600080fd5b50565b600081519050620001bf8162000194565b92915050565b600080600060608486031215620001e157620001e062000120565b5b6000620001f18682870162000149565b9350506020620002048682870162000149565b92505060406200021786828701620001ae565b9150509250925092565b7f4e487b7100000000000000000000000000000000000000000000000000000000600052601160045260246000fd5b60006200025d8262000125565b91506200026a8362000125565b925082820190508082111562000285576200028462000221565b5b92915050565b60805160a05160c05160e0516101005161012051610c87620002f4600039600050506000818161051c01526106bd0152600081816104ee015261069901526000818161047201526104bd0152600081816105500152610675015260006104960152610c876000f3fe6080604052600436106100915760003560e01c806398d5fdca1161005957806398d5fdca14610160578063a6f2ae3a1461018b578063da284dcc146101a9578063e6c0e6d5146101d4578063f1a9af89146101ff57610091565b80630cbf54c8146100965780631b55d216146100c15780634e71d92d146100ec57806378e979251461010a5780638da5cb5b14610135575b600080fd5b3480156100a257600080fd5b506100ab61022a565b6040516100b891906107e7565b60405180910390f35b3480156100cd57600080fd5b506100d6610230565b6040516100e391906107e7565b60405180910390f35b6100f461023a565b60405161010191906107e7565b60405180910390f35b34801561011657600080fd5b5061011f610470565b60405161012c91906107e7565b60405180910390f35b34801561014157600080fd5b5061014a610494565b6040516101579190610843565b60405180910390f35b34801561016c57600080fd5b506101756104b8565b60405161018291906107e7565b60405180910390f35b61019361054c565b6040516101a091906107e7565b60405180910390f35b3480156101b557600080fd5b506101be610673565b6040516101cb91906107e7565b60405180910390f35b3480156101e057600080fd5b506101e9610697565b6040516101f691906107e7565b60405180910390f35b34801561020b57600080fd5b506102146106bb565b60405161022191906107e7565b60405180910390f35b6104b081565b655af3107a400081565b6000806102456104b8565b90506000816000803373ffffffffffffffffffffffffffffffffffffffff1673ffffffffffffffffffffffffffffffffffffffff1681526020019081526020016000205461029391906108bc565b9050670de0b6b3a7640000816102a991906108ed565b90506102eb6040518060400160405280600e81526020017f746f6b656e7320636c61696d656400000000000000000000000000000000000081525082336106df565b6000826000803373ffffffffffffffffffffffffffffffffffffffff1673ffffffffffffffffffffffffffffffffffffffff16815260200190815260200160002054610337919061092f565b6000803373ffffffffffffffffffffffffffffffffffffffff1673ffffffffffffffffffffffffffffffffffffffff168152602001908152602001600020546103809190610960565b9050600260009054906101000a900473ffffffffffffffffffffffffffffffffffffffff1673ffffffffffffffffffffffffffffffffffffffff1663a9059cbb33846040518363ffffffff1660e01b81526004016103df9291906109b5565b6020604051808303816000875af11580156103fe573d6000803e3d6000fd5b505050506040513d601f19601f820116820180604052508101906104229190610a1b565b5060008060003373ffffffffffffffffffffffffffffffffffffffff1673ffffffffffffffffffffffffffffffffffffffff1681526020019081526020016000208190555081935050505090565b7f000000000000000000000000000000000000000000000000000000000000000081565b7f000000000000000000000000000000000000000000000000000000000000000081565b6000807f0000000000000000000000000000000000000000000000000000000000000000426104e79190610960565b90506000817f000000000000000000000000000000000000000000000000000000000000000061051791906108ed565b9050807f00000000000000000000000000000000000000000000000000000000000000006105459190610960565b9250505090565b60007f000000000000000000000000000000000000000000000000000000000000000042106105b0576040517f08c379a00000000000000000000000000000000000000000000000000000000081526004016105a790610aa5565b60405180910390fd5b60006105ba6104b8565b9050803410156105ff576040517f08c379a00000000000000000000000000000000000000000000000000000000081526004016105f690610b11565b60405180910390fd5b346000803373ffffffffffffffffffffffffffffffffffffffff1673ffffffffffffffffffffffffffffffffffffffff1681526020019081526020016000208190555034600160008282546106549190610b31565b925050819055506000813461066991906108bc565b9050349250505090565b7f000000000000000000000000000000000000000000000000000000000000000081565b7f000000000000000000000000000000000000000000000000000000000000000081565b7f000000000000000000000000000000000000000000000000000000000000000081565b6107798383836040516024016106f793929190610be4565b6040516020818303038152906040527f1c7ec448000000000000000000000000000000000000000000000000000000007bffffffffffffffffffffffffffffffffffffffffffffffffffffffff19166020820180517bffffffffffffffffffffffffffffffffffffffffffffffffffffffff838183161783525050505061077e565b505050565b6107958161078d6107986107b9565b63ffffffff16565b50565b60006a636f6e736f6c652e6c6f679050600080835160208501845afa505050565b6107c4819050919050565b6107cc610c22565b565b6000819050919050565b6107e1816107ce565b82525050565b60006020820190506107fc60008301846107d8565b92915050565b600073ffffffffffffffffffffffffffffffffffffffff82169050919050565b600061082d82610802565b9050919050565b61083d81610822565b82525050565b60006020820190506108586000830184610834565b92915050565b7f4e487b7100000000000000000000000000000000000000000000000000000000600052601260045260246000fd5b7f4e487b7100000000000000000000000000000000000000000000000000000000600052601160045260246000fd5b60006108c7826107ce565b91506108d2836107ce565b9250826108e2576108e161085e565b5b828204905092915050565b60006108f8826107ce565b9150610903836107ce565b9250828202610911816107ce565b915082820484148315176109285761092761088d565b5b5092915050565b600061093a826107ce565b9150610945836107ce565b9250826109555761095461085e565b5b828206905092915050565b600061096b826107ce565b9150610976836107ce565b925082820390508181111561098e5761098d61088d565b5b92915050565b600061099f82610802565b9050919050565b6109af81610994565b82525050565b60006040820190506109ca60008301856109a6565b6109d760208301846107d8565b9392505050565b600080fd5b60008115159050919050565b6109f8816109e3565b8114610a0357600080fd5b50565b600081519050610a15816109ef565b92915050565b600060208284031215610a3157610a306109de565b5b6000610a3f84828501610a06565b91505092915050565b600082825260208201905092915050565b7f41756374696f6e2074696d652068617320656c61707365640000000000000000600082015250565b6000610a8f601883610a48565b9150610a9a82610a59565b602082019050919050565b60006020820190508181036000830152610abe81610a82565b9050919050565b7f4e6f7420656e6f75676820657468000000000000000000000000000000000000600082015250565b6000610afb600e83610a48565b9150610b0682610ac5565b602082019050919050565b60006020820190508181036000830152610b2a81610aee565b9050919050565b6000610b3c826107ce565b9150610b47836107ce565b9250828201905080821115610b5f57610b5e61088d565b5b92915050565b600081519050919050565b60005b83811015610b8e578082015181840152602081019050610b73565b60008484015250505050565b6000601f19601f8301169050919050565b6000610bb682610b65565b610bc08185610a48565b9350610bd0818560208601610b70565b610bd981610b9a565b840191505092915050565b60006060820190508181036000830152610bfe8186610bab565b9050610c0d60208301856107d8565b610c1a60408301846109a6565b949350505050565b7f4e487b7100000000000000000000000000000000000000000000000000000000600052605160045260246000fdfea26469706673582212202cd70dba758eaaac9edd104492bd5c7a9c2eb07fc3ddd3e977a50ac4a4c0fd1164736f6c63430008140033",
  "devdoc": {
    "kind": "dev",
    "methods": {},
    "version": 1
  },
  "userdoc": {
    "kind": "user",
    "methods": {},
    "version": 1
  },
  "storageLayout": {
    "storage": [
      {
        "astId": 804,
        "contract": "contracts/DutchAuction.sol:DutchAuction",
        "label": "auctionStake",
        "offset": 0,
        "slot": "0",
        "type": "t_mapping(t_address,t_uint256)"
      },
      {
        "astId": 807,
        "contract": "contracts/DutchAuction.sol:DutchAuction",
        "label": "totalStake",
        "offset": 0,
        "slot": "1",
        "type": "t_uint256"
      },
      {
        "astId": 810,
        "contract": "contracts/DutchAuction.sol:DutchAuction",
        "label": "wfcoin",
        "offset": 0,
        "slot": "2",
        "type": "t_contract(WFCoin)1058"
      }
    ],
    "types": {
      "t_address": {
        "encoding": "inplace",
        "label": "address",
        "numberOfBytes": "20"
      },
      "t_contract(WFCoin)1058": {
        "encoding": "inplace",
        "label": "contract WFCoin",
        "numberOfBytes": "20"
      },
      "t_mapping(t_address,t_uint256)": {
        "encoding": "mapping",
        "key": "t_address",
        "label": "mapping(address => uint256)",
        "numberOfBytes": "32",
        "value": "t_uint256"
      },
      "t_uint256": {
        "encoding": "inplace",
        "label": "uint256",
        "numberOfBytes": "32"
      }
    }
  }
}