{
  "address": "0xe7f1725E7734CE288F8367e1Bb143E90bb3F0512",
  "abi": [
    {
      "inputs": [
        {
          "internalType": "uint256",
          "name": "_discountRate",
          "type": "uint256"
        },
        {
          "internalType": "uint256",
          "name": "_startPrice",
          "type": "uint256"
        },
        {
          "internalType": "address",
          "name": "_token",
          "type": "address"
        }
      ],
      "stateMutability": "nonpayable",
      "type": "constructor"
    },
    {
      "inputs": [],
      "name": "AuctionFinished",
      "outputs": [
        {
          "internalType": "bool",
          "name": "",
          "type": "bool"
        }
      ],
      "stateMutability": "view",
      "type": "function"
    },
    {
      "inputs": [],
      "name": "auctionDuration",
      "outputs": [
        {
          "internalType": "uint256",
          "name": "",
          "type": "uint256"
        }
      ],
      "stateMutability": "view",
      "type": "function"
    },
    {
      "inputs": [],
      "name": "auctionFinished",
      "outputs": [
        {
          "internalType": "bool",
          "name": "",
          "type": "bool"
        }
      ],
      "stateMutability": "nonpayable",
      "type": "function"
    },
    {
      "inputs": [],
      "name": "buy",
      "outputs": [
        {
          "internalType": "uint256",
          "name": "",
          "type": "uint256"
        }
      ],
      "stateMutability": "payable",
      "type": "function"
    },
    {
      "inputs": [],
      "name": "claim",
      "outputs": [
        {
          "internalType": "uint256",
          "name": "",
          "type": "uint256"
        }
      ],
      "stateMutability": "nonpayable",
      "type": "function"
    },
    {
      "inputs": [],
      "name": "discountRate",
      "outputs": [
        {
          "internalType": "uint256",
          "name": "",
          "type": "uint256"
        }
      ],
      "stateMutability": "view",
      "type": "function"
    },
    {
      "inputs": [],
      "name": "expirationTime",
      "outputs": [
        {
          "internalType": "uint256",
          "name": "",
          "type": "uint256"
        }
      ],
      "stateMutability": "view",
      "type": "function"
    },
    {
      "inputs": [],
      "name": "finalPrice",
      "outputs": [
        {
          "internalType": "uint256",
          "name": "",
          "type": "uint256"
        }
      ],
      "stateMutability": "view",
      "type": "function"
    },
    {
      "inputs": [],
      "name": "getPrice",
      "outputs": [
        {
          "internalType": "uint256",
          "name": "",
          "type": "uint256"
        }
      ],
      "stateMutability": "view",
      "type": "function"
    },
    {
      "inputs": [],
      "name": "getStatus",
      "outputs": [
        {
          "internalType": "bool",
          "name": "",
          "type": "bool"
        }
      ],
      "stateMutability": "view",
      "type": "function"
    },
    {
      "inputs": [],
      "name": "getTokenBalance",
      "outputs": [
        {
          "internalType": "uint256",
          "name": "",
          "type": "uint256"
        }
      ],
      "stateMutability": "view",
      "type": "function"
    },
    {
      "inputs": [],
      "name": "owner",
      "outputs": [
        {
          "internalType": "address payable",
          "name": "",
          "type": "address"
        }
      ],
      "stateMutability": "view",
      "type": "function"
    },
    {
      "inputs": [
        {
          "internalType": "uint256",
          "name": "amount",
          "type": "uint256"
        },
        {
          "internalType": "address",
          "name": "addr",
          "type": "address"
        }
      ],
      "name": "refund",
      "outputs": [],
      "stateMutability": "payable",
      "type": "function"
    },
    {
      "inputs": [],
      "name": "reservedPrice",
      "outputs": [
        {
          "internalType": "uint256",
          "name": "",
          "type": "uint256"
        }
      ],
      "stateMutability": "view",
      "type": "function"
    },
    {
      "inputs": [],
      "name": "startPrice",
      "outputs": [
        {
          "internalType": "uint256",
          "name": "",
          "type": "uint256"
        }
      ],
      "stateMutability": "view",
      "type": "function"
    },
    {
      "inputs": [],
      "name": "startTime",
      "outputs": [
        {
          "internalType": "uint256",
          "name": "",
          "type": "uint256"
        }
      ],
      "stateMutability": "view",
      "type": "function"
    },
    {
      "inputs": [],
      "name": "tokenSupply",
      "outputs": [
        {
          "internalType": "uint256",
          "name": "",
          "type": "uint256"
        }
      ],
      "stateMutability": "view",
      "type": "function"
    }
  ],
  "transactionHash": "0xa986eb918686d43eb39c6b659c854724de14ee117e1c69be6e5fe7410dfb3135",
  "args": [
    750000000000,
    1000000000000000,
    "0x5FbDB2315678afecb367f032d93F642f64180aa3"
  ],
  "numDeployments": 1,
  "solcInputHash": "56771334b1589b6530790bba44b47420",
  "bytecode": "0x61018060405260006002553480156200001757600080fd5b5060405162001dc738038062001dc783398181016040528101906200003d9190620001fa565b6104b0426200004d919062000285565b60a081815250504260c08181525050826101008181525050816101208181525050655af3107a400060e081815250503373ffffffffffffffffffffffffffffffffffffffff1660808173ffffffffffffffffffffffffffffffffffffffff16815250508073ffffffffffffffffffffffffffffffffffffffff166101608173ffffffffffffffffffffffffffffffffffffffff16815250506103e8610140818152505080600360006101000a81548173ffffffffffffffffffffffffffffffffffffffff021916908373ffffffffffffffffffffffffffffffffffffffff1602179055506000600360156101000a81548160ff021916908315150217905550505050620002c0565b600080fd5b6000819050919050565b6200016f816200015a565b81146200017b57600080fd5b50565b6000815190506200018f8162000164565b92915050565b600073ffffffffffffffffffffffffffffffffffffffff82169050919050565b6000620001c28262000195565b9050919050565b620001d481620001b5565b8114620001e057600080fd5b50565b600081519050620001f481620001c9565b92915050565b60008060006060848603121562000216576200021562000155565b5b600062000226868287016200017e565b935050602062000239868287016200017e565b92505060406200024c86828701620001e3565b9150509250925092565b7f4e487b7100000000000000000000000000000000000000000000000000000000600052601160045260246000fd5b600062000292826200015a565b91506200029f836200015a565b9250828201905080821115620002ba57620002b962000256565b5b92915050565b60805160a05160c05160e05161010051610120516101405161016051611a386200038f6000396000610f9b01526000818161072f0152818161079d0152818161081e01528181610a5c01528181610ac001528181610ca20152610cdd015260008181610905015261107f0152600081816108d7015261105b0152600081816103ca01528181610b410152610f3601526000818161075301526108960152600081816109ab01528181610d8901528181610e3501528181610ed401526110370152600061084f0152611a386000f3fe6080604052600436106100fe5760003560e01c806382b2e25711610095578063a6f2ae3a11610064578063a6f2ae3a146102f8578063c9fddcd114610316578063da284dcc14610341578063e6c0e6d51461036c578063f1a9af8914610397576100fe565b806382b2e2571461024c5780638da5cb5b1461027757806398d5fdca146102a2578063a6b513ee146102cd576100fe565b80636884a43d116100d15780636884a43d146101af5780637824407f146101da57806378e97925146102055780637ad226dc14610230576100fe565b80630cbf54c8146101035780631b55d2161461012e5780634e69d560146101595780634e71d92d14610184575b600080fd5b34801561010f57600080fd5b506101186103c2565b6040516101259190611329565b60405180910390f35b34801561013a57600080fd5b506101436103c8565b6040516101509190611329565b60405180910390f35b34801561016557600080fd5b5061016e6103ec565b60405161017b919061135f565b60405180910390f35b34801561019057600080fd5b50610199610403565b6040516101a69190611329565b60405180910390f35b3480156101bb57600080fd5b506101c461071a565b6040516101d1919061135f565b60405180910390f35b3480156101e657600080fd5b506101ef61072d565b6040516101fc9190611329565b60405180910390f35b34801561021157600080fd5b5061021a610751565b6040516102279190611329565b60405180910390f35b61024a60048036038101906102459190611409565b610775565b005b34801561025857600080fd5b50610261610783565b60405161026e9190611329565b60405180910390f35b34801561028357600080fd5b5061028c61084d565b604051610299919061146a565b60405180910390f35b3480156102ae57600080fd5b506102b7610871565b6040516102c49190611329565b60405180910390f35b3480156102d957600080fd5b506102e2610936565b6040516102ef9190611329565b60405180910390f35b61030061093c565b60405161030d9190611329565b60405180910390f35b34801561032257600080fd5b5061032b610c80565b604051610338919061135f565b60405180910390f35b34801561034d57600080fd5b50610356611035565b6040516103639190611329565b60405180910390f35b34801561037857600080fd5b50610381611059565b60405161038e9190611329565b60405180910390f35b3480156103a357600080fd5b506103ac61107d565b6040516103b99190611329565b60405180910390f35b6104b081565b7f000000000000000000000000000000000000000000000000000000000000000081565b6000600360159054906101000a900460ff16905090565b600061040d610c80565b600360156101000a81548160ff021916908315150217905550600360159054906101000a900460ff16610475576040517f08c379a000000000000000000000000000000000000000000000000000000000815260040161046c906114e2565b60405180910390fd5b6104b66040518060400160405280600d81526020017f63757272656e74207072696365000000000000000000000000000000000000008152506000546110a1565b6105346040518060400160405280600681526020017f7374616b653a0000000000000000000000000000000000000000000000000000815250600160003373ffffffffffffffffffffffffffffffffffffffff1673ffffffffffffffffffffffffffffffffffffffff168152602001908152602001600020546110a1565b60008054670de0b6b3a7640000600160003373ffffffffffffffffffffffffffffffffffffffff1673ffffffffffffffffffffffffffffffffffffffff1681526020019081526020016000205461058b9190611531565b61059591906115a2565b9050600081116105da576040517f08c379a00000000000000000000000000000000000000000000000000000000081526004016105d190611645565b60405180910390fd5b61062d6040518060400160405280600e81526020017f746f6b656e7320636c61696d6564000000000000000000000000000000000000815250670de0b6b3a76400008361062791906115a2565b3361113d565b600360009054906101000a900473ffffffffffffffffffffffffffffffffffffffff1673ffffffffffffffffffffffffffffffffffffffff1663a9059cbb33836040518363ffffffff1660e01b815260040161068a929190611674565b6020604051808303816000875af11580156106a9573d6000803e3d6000fd5b505050506040513d601f19601f820116820180604052508101906106cd91906116c9565b506000600160003373ffffffffffffffffffffffffffffffffffffffff1673ffffffffffffffffffffffffffffffffffffffff168152602001908152602001600020819055508091505090565b600360159054906101000a900460ff1681565b7f000000000000000000000000000000000000000000000000000000000000000081565b7f000000000000000000000000000000000000000000000000000000000000000081565b61077f82826111dc565b5050565b60008061078e610871565b60025461079b91906115a2565b7f00000000000000000000000000000000000000000000000000000000000000006107c691906116f6565b90506108076040518060400160405280600781526020017f62616c616e636500000000000000000000000000000000000000000000000000815250826110a1565b61080f610871565b60025461081c91906115a2565b7f000000000000000000000000000000000000000000000000000000000000000061084791906116f6565b91505090565b7f000000000000000000000000000000000000000000000000000000000000000081565b6000600360159054906101000a900460ff1615610892576000549050610933565b60007f0000000000000000000000000000000000000000000000000000000000000000426108c091906116f6565b90506104b08111156108d2576104b090505b6000817f00000000000000000000000000000000000000000000000000000000000000006109009190611531565b9050807f000000000000000000000000000000000000000000000000000000000000000061092e91906116f6565b925050505b90565b60005481565b6000610946610c80565b600360156101000a81548160ff0219169083151502179055506000610969610783565b116109a9576040517f08c379a00000000000000000000000000000000000000000000000000000000081526004016109a090611776565b60405180910390fd5b7f00000000000000000000000000000000000000000000000000000000000000004210610a0b576040517f08c379a0000000000000000000000000000000000000000000000000000000008152600401610a02906117e2565b60405180910390fd5b6000610a15610871565b905080341015610a5a576040517f08c379a0000000000000000000000000000000000000000000000000000000008152600401610a519061184e565b60405180910390fd5b7f000000000000000000000000000000000000000000000000000000000000000081610a869190611531565b60025434610a94919061186e565b1115610c0957806000819055506001600360156101000a81548160ff02191690831515021790555060007f0000000000000000000000000000000000000000000000000000000000000000600054610aec9190611531565b60025434610afa919061186e565b610b0491906116f6565b9050610b706040518060400160405280600a81526020017f646966666572656e6365000000000000000000000000000000000000000000008152507f000000000000000000000000000000000000000000000000000000000000000083610b6b91906115a2565b6110a1565b8034610b7c91906116f6565b60026000828254610b8d919061186e565b925050819055508034610ba091906116f6565b600160003373ffffffffffffffffffffffffffffffffffffffff1673ffffffffffffffffffffffffffffffffffffffff1681526020019081526020016000206000828254610bee919061186e565b92505081905550610bff8133610775565b8092505050610c7d565b34600160003373ffffffffffffffffffffffffffffffffffffffff1673ffffffffffffffffffffffffffffffffffffffff1681526020019081526020016000206000828254610c58919061186e565b925050819055503460026000828254610c71919061186e565b92505081905550349150505b90565b6000600360159054906101000a900460ff1615610ca05760019050611032565b7f0000000000000000000000000000000000000000000000000000000000000000610cc9610871565b610cd39190611531565b60025410610e33577f0000000000000000000000000000000000000000000000000000000000000000600254610d0991906115a2565b600081905550610d4e6040518060400160405280600f81526020017f626c6f636b2074696d657374616d700000000000000000000000000000000000815250426110a1565b610dad6040518060400160405280600f81526020017f65787069726174696f6e2074696d6500000000000000000000000000000000008152507f00000000000000000000000000000000000000000000000000000000000000006110a1565b610dce6040518060600160405280602281526020016119e160229139611227565b610e0f6040518060400160405280600d81526020017f66696e616c2070726963653a20000000000000000000000000000000000000008152506000546110a1565b6001600360156101000a81548160ff02191690831515021790555060019050611032565b7f0000000000000000000000000000000000000000000000000000000000000000421061102d57610e996040518060400160405280600f81526020017f626c6f636b2074696d657374616d700000000000000000000000000000000000815250426110a1565b610ef86040518060400160405280600f81526020017f65787069726174696f6e2074696d6500000000000000000000000000000000008152507f00000000000000000000000000000000000000000000000000000000000000006110a1565b610f196040518060600160405280602281526020016119e160229139611227565b6001600360156101000a81548160ff0219169083151502179055507f0000000000000000000000000000000000000000000000000000000000000000600081905550600360009054906101000a900473ffffffffffffffffffffffffffffffffffffffff1673ffffffffffffffffffffffffffffffffffffffff16639dc29fac7f0000000000000000000000000000000000000000000000000000000000000000670de0b6b3a7640000610fcb610783565b610fd59190611531565b6040518363ffffffff1660e01b8152600401610ff2929190611674565b600060405180830381600087803b15801561100c57600080fd5b505af1158015611020573d6000803e3d6000fd5b5050505060019050611032565b600090505b90565b7f000000000000000000000000000000000000000000000000000000000000000081565b7f000000000000000000000000000000000000000000000000000000000000000081565b7f000000000000000000000000000000000000000000000000000000000000000081565b61113982826040516024016110b7929190611921565b6040516020818303038152906040527fb60e72cc000000000000000000000000000000000000000000000000000000007bffffffffffffffffffffffffffffffffffffffffffffffffffffffff19166020820180517bffffffffffffffffffffffffffffffffffffffffffffffffffffffff83818316178352505050506112c0565b5050565b6111d783838360405160240161115593929190611951565b6040516020818303038152906040527f1c7ec448000000000000000000000000000000000000000000000000000000007bffffffffffffffffffffffffffffffffffffffffffffffffffffffff19166020820180517bffffffffffffffffffffffffffffffffffffffffffffffffffffffff83818316178352505050506112c0565b505050565b8073ffffffffffffffffffffffffffffffffffffffff166108fc839081150290604051600060405180830381858888f19350505050158015611222573d6000803e3d6000fd5b505050565b6112bd8160405160240161123b919061198f565b6040516020818303038152906040527f41304fac000000000000000000000000000000000000000000000000000000007bffffffffffffffffffffffffffffffffffffffffffffffffffffffff19166020820180517bffffffffffffffffffffffffffffffffffffffffffffffffffffffff83818316178352505050506112c0565b50565b6112d7816112cf6112da6112fb565b63ffffffff16565b50565b60006a636f6e736f6c652e6c6f679050600080835160208501845afa505050565b611306819050919050565b61130e6119b1565b565b6000819050919050565b61132381611310565b82525050565b600060208201905061133e600083018461131a565b92915050565b60008115159050919050565b61135981611344565b82525050565b60006020820190506113746000830184611350565b92915050565b600080fd5b61138881611310565b811461139357600080fd5b50565b6000813590506113a58161137f565b92915050565b600073ffffffffffffffffffffffffffffffffffffffff82169050919050565b60006113d6826113ab565b9050919050565b6113e6816113cb565b81146113f157600080fd5b50565b600081359050611403816113dd565b92915050565b600080604083850312156114205761141f61137a565b5b600061142e85828601611396565b925050602061143f858286016113f4565b9150509250929050565b6000611454826113ab565b9050919050565b61146481611449565b82525050565b600060208201905061147f600083018461145b565b92915050565b600082825260208201905092915050565b7f41554354494f4e204953205354494c4c20494e2050524f475245535300000000600082015250565b60006114cc601c83611485565b91506114d782611496565b602082019050919050565b600060208201905081810360008301526114fb816114bf565b9050919050565b7f4e487b7100000000000000000000000000000000000000000000000000000000600052601160045260246000fd5b600061153c82611310565b915061154783611310565b925082820261155581611310565b9150828204841483151761156c5761156b611502565b5b5092915050565b7f4e487b7100000000000000000000000000000000000000000000000000000000600052601260045260246000fd5b60006115ad82611310565b91506115b883611310565b9250826115c8576115c7611573565b5b828204905092915050565b7f596f752068617665206e6f206d6f726520746f6b656e73206c65667420746f2060008201527f636f6c6c65637400000000000000000000000000000000000000000000000000602082015250565b600061162f602783611485565b915061163a826115d3565b604082019050919050565b6000602082019050818103600083015261165e81611622565b9050919050565b61166e816113cb565b82525050565b60006040820190506116896000830185611665565b611696602083018461131a565b9392505050565b6116a681611344565b81146116b157600080fd5b50565b6000815190506116c38161169d565b92915050565b6000602082840312156116df576116de61137a565b5b60006116ed848285016116b4565b91505092915050565b600061170182611310565b915061170c83611310565b925082820390508181111561172457611723611502565b5b92915050565b7f544f4b454e5320534f4c44204f55540000000000000000000000000000000000600082015250565b6000611760600f83611485565b915061176b8261172a565b602082019050919050565b6000602082019050818103600083015261178f81611753565b9050919050565b7f41554354494f4e2054494d452048415320454c41505345440000000000000000600082015250565b60006117cc601883611485565b91506117d782611796565b602082019050919050565b600060208201905081810360008301526117fb816117bf565b9050919050565b7f4e4f5420454e4f55474820455448000000000000000000000000000000000000600082015250565b6000611838600e83611485565b915061184382611802565b602082019050919050565b600060208201905081810360008301526118678161182b565b9050919050565b600061187982611310565b915061188483611310565b925082820190508082111561189c5761189b611502565b5b92915050565b600081519050919050565b60005b838110156118cb5780820151818401526020810190506118b0565b60008484015250505050565b6000601f19601f8301169050919050565b60006118f3826118a2565b6118fd8185611485565b935061190d8185602086016118ad565b611916816118d7565b840191505092915050565b6000604082019050818103600083015261193b81856118e8565b905061194a602083018461131a565b9392505050565b6000606082019050818103600083015261196b81866118e8565b905061197a602083018561131a565b6119876040830184611665565b949350505050565b600060208201905081810360008301526119a981846118e8565b905092915050565b7f4e487b7100000000000000000000000000000000000000000000000000000000600052605160045260246000fdfe53657474696e672041756374696f6e2073746174757320746f2066696e6973686564a264697066735822122068ce498beb139470faae1be895b5761095be92a7ffa58060093ef12b948215c364736f6c63430008140033",
  "devdoc": {
    "kind": "dev",
    "methods": {},
    "version": 1
  },
  "userdoc": {
    "kind": "user",
    "methods": {},
    "version": 1
  },
  "storageLayout": {
    "storage": [
      {
        "astId": 799,
        "contract": "contracts/DutchAuction.sol:DutchAuction",
        "label": "finalPrice",
        "offset": 0,
        "slot": "0",
        "type": "t_uint256"
      },
      {
        "astId": 805,
        "contract": "contracts/DutchAuction.sol:DutchAuction",
        "label": "auctionStake",
        "offset": 0,
        "slot": "1",
        "type": "t_mapping(t_address,t_uint256)"
      },
      {
        "astId": 808,
        "contract": "contracts/DutchAuction.sol:DutchAuction",
        "label": "totalStake",
        "offset": 0,
        "slot": "2",
        "type": "t_uint256"
      },
      {
        "astId": 811,
        "contract": "contracts/DutchAuction.sol:DutchAuction",
        "label": "wfcoin",
        "offset": 0,
        "slot": "3",
        "type": "t_contract(WFCoin)1425"
      },
      {
        "astId": 813,
        "contract": "contracts/DutchAuction.sol:DutchAuction",
        "label": "locked",
        "offset": 20,
        "slot": "3",
        "type": "t_bool"
      },
      {
        "astId": 815,
        "contract": "contracts/DutchAuction.sol:DutchAuction",
        "label": "AuctionFinished",
        "offset": 21,
        "slot": "3",
        "type": "t_bool"
      }
    ],
    "types": {
      "t_address": {
        "encoding": "inplace",
        "label": "address",
        "numberOfBytes": "20"
      },
      "t_bool": {
        "encoding": "inplace",
        "label": "bool",
        "numberOfBytes": "1"
      },
      "t_contract(WFCoin)1425": {
        "encoding": "inplace",
        "label": "contract WFCoin",
        "numberOfBytes": "20"
      },
      "t_mapping(t_address,t_uint256)": {
        "encoding": "mapping",
        "key": "t_address",
        "label": "mapping(address => uint256)",
        "numberOfBytes": "32",
        "value": "t_uint256"
      },
      "t_uint256": {
        "encoding": "inplace",
        "label": "uint256",
        "numberOfBytes": "32"
      }
    }
  }
}