{
  "address": "0xe7f1725E7734CE288F8367e1Bb143E90bb3F0512",
  "abi": [
    {
      "inputs": [
        {
          "internalType": "uint256",
          "name": "_discountRate",
          "type": "uint256"
        },
        {
          "internalType": "uint256",
          "name": "_startPrice",
          "type": "uint256"
        },
        {
          "internalType": "address",
          "name": "_token",
          "type": "address"
        }
      ],
      "stateMutability": "nonpayable",
      "type": "constructor"
    },
    {
      "inputs": [],
      "name": "AuctionFinished",
      "outputs": [
        {
          "internalType": "bool",
          "name": "",
          "type": "bool"
        }
      ],
      "stateMutability": "view",
      "type": "function"
    },
    {
      "inputs": [],
      "name": "auctionDuration",
      "outputs": [
        {
          "internalType": "uint256",
          "name": "",
          "type": "uint256"
        }
      ],
      "stateMutability": "view",
      "type": "function"
    },
    {
      "inputs": [],
      "name": "auctionFinished",
      "outputs": [
        {
          "internalType": "bool",
          "name": "",
          "type": "bool"
        }
      ],
      "stateMutability": "nonpayable",
      "type": "function"
    },
    {
      "inputs": [],
      "name": "buy",
      "outputs": [
        {
          "internalType": "uint256",
          "name": "",
          "type": "uint256"
        }
      ],
      "stateMutability": "payable",
      "type": "function"
    },
    {
      "inputs": [],
      "name": "claim",
      "outputs": [
        {
          "internalType": "uint256",
          "name": "",
          "type": "uint256"
        }
      ],
      "stateMutability": "nonpayable",
      "type": "function"
    },
    {
      "inputs": [],
      "name": "discountRate",
      "outputs": [
        {
          "internalType": "uint256",
          "name": "",
          "type": "uint256"
        }
      ],
      "stateMutability": "view",
      "type": "function"
    },
    {
      "inputs": [],
      "name": "expirationTime",
      "outputs": [
        {
          "internalType": "uint256",
          "name": "",
          "type": "uint256"
        }
      ],
      "stateMutability": "view",
      "type": "function"
    },
    {
      "inputs": [],
      "name": "finalPrice",
      "outputs": [
        {
          "internalType": "uint256",
          "name": "",
          "type": "uint256"
        }
      ],
      "stateMutability": "view",
      "type": "function"
    },
    {
      "inputs": [],
      "name": "getPrice",
      "outputs": [
        {
          "internalType": "uint256",
          "name": "",
          "type": "uint256"
        }
      ],
      "stateMutability": "view",
      "type": "function"
    },
    {
      "inputs": [],
      "name": "getTokenBalance",
      "outputs": [
        {
          "internalType": "uint256",
          "name": "",
          "type": "uint256"
        }
      ],
      "stateMutability": "view",
      "type": "function"
    },
    {
      "inputs": [],
      "name": "owner",
      "outputs": [
        {
          "internalType": "address payable",
          "name": "",
          "type": "address"
        }
      ],
      "stateMutability": "view",
      "type": "function"
    },
    {
      "inputs": [
        {
          "internalType": "uint256",
          "name": "amount",
          "type": "uint256"
        },
        {
          "internalType": "address",
          "name": "addr",
          "type": "address"
        }
      ],
      "name": "refund",
      "outputs": [],
      "stateMutability": "payable",
      "type": "function"
    },
    {
      "inputs": [],
      "name": "reservedPrice",
      "outputs": [
        {
          "internalType": "uint256",
          "name": "",
          "type": "uint256"
        }
      ],
      "stateMutability": "view",
      "type": "function"
    },
    {
      "inputs": [],
      "name": "startPrice",
      "outputs": [
        {
          "internalType": "uint256",
          "name": "",
          "type": "uint256"
        }
      ],
      "stateMutability": "view",
      "type": "function"
    },
    {
      "inputs": [],
      "name": "startTime",
      "outputs": [
        {
          "internalType": "uint256",
          "name": "",
          "type": "uint256"
        }
      ],
      "stateMutability": "view",
      "type": "function"
    }
  ],
  "transactionHash": "0x44f18124da4f1c59a8030cf26bf60a88b5db2efc72041868032e8aa6923f33d5",
  "args": [
    750000000000,
    1000000000000000,
    "0x5FbDB2315678afecb367f032d93F642f64180aa3"
  ],
  "numDeployments": 1,
  "solcInputHash": "b1e0da99369fdc9eaf7f7c9226812da3",
  "bytecode": "0x61014060405260006002553480156200001757600080fd5b5060405162001cce38038062001cce83398181016040528101906200003d9190620001e0565b6104b0426200004d91906200026b565b60a081815250504260c081815250508260e081815250508161010081815250503373ffffffffffffffffffffffffffffffffffffffff1660808173ffffffffffffffffffffffffffffffffffffffff16815250508073ffffffffffffffffffffffffffffffffffffffff166101208173ffffffffffffffffffffffffffffffffffffffff168152505080600360006101000a81548173ffffffffffffffffffffffffffffffffffffffff021916908373ffffffffffffffffffffffffffffffffffffffff1602179055506000600360156101000a81548160ff021916908315150217905550505050620002a6565b600080fd5b6000819050919050565b620001558162000140565b81146200016157600080fd5b50565b60008151905062000175816200014a565b92915050565b600073ffffffffffffffffffffffffffffffffffffffff82169050919050565b6000620001a8826200017b565b9050919050565b620001ba816200019b565b8114620001c657600080fd5b50565b600081519050620001da81620001af565b92915050565b600080600060608486031215620001fc57620001fb6200013b565b5b60006200020c8682870162000164565b93505060206200021f8682870162000164565b92505060406200023286828701620001c9565b9150509250925092565b7f4e487b7100000000000000000000000000000000000000000000000000000000600052601160045260246000fd5b6000620002788262000140565b9150620002858362000140565b9250828201905080821115620002a0576200029f6200023c565b5b92915050565b60805160a05160c05160e05161010051610120516119a7620003276000396000610dfa0152600081816108100152610ede0152600081816107e20152610eba01526000818161069201526107a10152600081816108b601528181610c0201528181610cae01528181610d4d0152610e960152600061075a01526119a76000f3fe6080604052600436106100e85760003560e01c80638da5cb5b1161008a578063c9fddcd111610059578063c9fddcd1146102aa578063da284dcc146102d5578063e6c0e6d514610300578063f1a9af891461032b576100e8565b80638da5cb5b1461020b57806398d5fdca14610236578063a6b513ee14610261578063a6f2ae3a1461028c576100e8565b80636884a43d116100c65780636884a43d1461016e57806378e97925146101995780637ad226dc146101c457806382b2e257146101e0576100e8565b80630cbf54c8146100ed5780631b55d216146101185780634e71d92d14610143575b600080fd5b3480156100f957600080fd5b50610102610356565b60405161010f9190611221565b60405180910390f35b34801561012457600080fd5b5061012d61035c565b60405161013a9190611221565b60405180910390f35b34801561014f57600080fd5b50610158610366565b6040516101659190611221565b60405180910390f35b34801561017a57600080fd5b5061018361067d565b6040516101909190611257565b60405180910390f35b3480156101a557600080fd5b506101ae610690565b6040516101bb9190611221565b60405180910390f35b6101de60048036038101906101d99190611301565b6106b4565b005b3480156101ec57600080fd5b506101f56106c2565b6040516102029190611221565b60405180910390f35b34801561021757600080fd5b50610220610758565b60405161022d9190611362565b60405180910390f35b34801561024257600080fd5b5061024b61077c565b6040516102589190611221565b60405180910390f35b34801561026d57600080fd5b50610276610841565b6040516102839190611221565b60405180910390f35b610294610847565b6040516102a19190611221565b60405180910390f35b3480156102b657600080fd5b506102bf610b35565b6040516102cc9190611257565b60405180910390f35b3480156102e157600080fd5b506102ea610e94565b6040516102f79190611221565b60405180910390f35b34801561030c57600080fd5b50610315610eb8565b6040516103229190611221565b60405180910390f35b34801561033757600080fd5b50610340610edc565b60405161034d9190611221565b60405180910390f35b6104b081565b655af3107a400081565b6000610370610b35565b600360156101000a81548160ff021916908315150217905550600360159054906101000a900460ff166103d8576040517f08c379a00000000000000000000000000000000000000000000000000000000081526004016103cf906113da565b60405180910390fd5b6104196040518060400160405280600d81526020017f63757272656e7420707269636500000000000000000000000000000000000000815250600054610f00565b6104976040518060400160405280600681526020017f7374616b653a0000000000000000000000000000000000000000000000000000815250600160003373ffffffffffffffffffffffffffffffffffffffff1673ffffffffffffffffffffffffffffffffffffffff16815260200190815260200160002054610f00565b60008054670de0b6b3a7640000600160003373ffffffffffffffffffffffffffffffffffffffff1673ffffffffffffffffffffffffffffffffffffffff168152602001908152602001600020546104ee9190611429565b6104f8919061149a565b90506000811161053d576040517f08c379a00000000000000000000000000000000000000000000000000000000081526004016105349061153d565b60405180910390fd5b6105906040518060400160405280600e81526020017f746f6b656e7320636c61696d6564000000000000000000000000000000000000815250670de0b6b3a76400008361058a919061149a565b33610f9c565b600360009054906101000a900473ffffffffffffffffffffffffffffffffffffffff1673ffffffffffffffffffffffffffffffffffffffff1663a9059cbb33836040518363ffffffff1660e01b81526004016105ed92919061156c565b6020604051808303816000875af115801561060c573d6000803e3d6000fd5b505050506040513d601f19601f8201168201806040525081019061063091906115c1565b506000600160003373ffffffffffffffffffffffffffffffffffffffff1673ffffffffffffffffffffffffffffffffffffffff168152602001908152602001600020819055508091505090565b600360159054906101000a900460ff1681565b7f000000000000000000000000000000000000000000000000000000000000000081565b6106be828261103b565b5050565b6000806106cd61077c565b6002546106da919061149a565b6103e86106e791906115f8565b90506107276040518060400160405280600781526020017f62616c616e636500000000000000000000000000000000000000000000000000815250611086565b6107308161111f565b61073861077c565b600254610745919061149a565b6103e8610752919061163b565b91505090565b7f000000000000000000000000000000000000000000000000000000000000000081565b6000600360159054906101000a900460ff161561079d57600054905061083e565b60007f0000000000000000000000000000000000000000000000000000000000000000426107cb919061163b565b90506104b08111156107dd576104b090505b6000817f000000000000000000000000000000000000000000000000000000000000000061080b9190611429565b9050807f0000000000000000000000000000000000000000000000000000000000000000610839919061163b565b925050505b90565b60005481565b6000610851610b35565b600360156101000a81548160ff02191690831515021790555060006108746106c2565b116108b4576040517f08c379a00000000000000000000000000000000000000000000000000000000081526004016108ab906116bb565b60405180910390fd5b7f00000000000000000000000000000000000000000000000000000000000000004210610916576040517f08c379a000000000000000000000000000000000000000000000000000000000815260040161090d90611727565b60405180910390fd5b600061092061077c565b905080341015610965576040517f08c379a000000000000000000000000000000000000000000000000000000000815260040161095c90611793565b60405180910390fd5b6103e8816109739190611429565b6002543461098191906117b3565b1115610abe57806000819055506001600360156101000a81548160ff02191690831515021790555060006103e86000546109bb9190611429565b600254346109c991906117b3565b6109d3919061163b565b9050610a256040518060400160405280600a81526020017f646966666572656e636500000000000000000000000000000000000000000000815250655af3107a400083610a20919061149a565b610f00565b8034610a31919061163b565b60026000828254610a4291906117b3565b925050819055508034610a55919061163b565b600160003373ffffffffffffffffffffffffffffffffffffffff1673ffffffffffffffffffffffffffffffffffffffff1681526020019081526020016000206000828254610aa391906117b3565b92505081905550610ab481336106b4565b8092505050610b32565b34600160003373ffffffffffffffffffffffffffffffffffffffff1673ffffffffffffffffffffffffffffffffffffffff1681526020019081526020016000206000828254610b0d91906117b3565b925050819055503460026000828254610b2691906117b3565b92505081905550349150505b90565b6000600360159054906101000a900460ff1615610b555760019050610e91565b6103e8610b6061077c565b610b6a9190611429565b60025410610cac576103e8600254610b82919061149a565b600081905550610bc76040518060400160405280600f81526020017f626c6f636b2074696d657374616d70000000000000000000000000000000000081525042610f00565b610c266040518060400160405280600f81526020017f65787069726174696f6e2074696d6500000000000000000000000000000000008152507f0000000000000000000000000000000000000000000000000000000000000000610f00565b610c4760405180606001604052806022815260200161195060229139611086565b610c886040518060400160405280600d81526020017f66696e616c2070726963653a2000000000000000000000000000000000000000815250600054610f00565b6001600360156101000a81548160ff02191690831515021790555060019050610e91565b7f00000000000000000000000000000000000000000000000000000000000000004210610e8c57610d126040518060400160405280600f81526020017f626c6f636b2074696d657374616d70000000000000000000000000000000000081525042610f00565b610d716040518060400160405280600f81526020017f65787069726174696f6e2074696d6500000000000000000000000000000000008152507f0000000000000000000000000000000000000000000000000000000000000000610f00565b610d9260405180606001604052806022815260200161195060229139611086565b6001600360156101000a81548160ff021916908315150217905550655af3107a4000600081905550600360009054906101000a900473ffffffffffffffffffffffffffffffffffffffff1673ffffffffffffffffffffffffffffffffffffffff16639dc29fac7f0000000000000000000000000000000000000000000000000000000000000000670de0b6b3a7640000610e2a6106c2565b610e349190611429565b6040518363ffffffff1660e01b8152600401610e5192919061156c565b600060405180830381600087803b158015610e6b57600080fd5b505af1158015610e7f573d6000803e3d6000fd5b5050505060019050610e91565b600090505b90565b7f000000000000000000000000000000000000000000000000000000000000000081565b7f000000000000000000000000000000000000000000000000000000000000000081565b7f000000000000000000000000000000000000000000000000000000000000000081565b610f988282604051602401610f16929190611866565b6040516020818303038152906040527fb60e72cc000000000000000000000000000000000000000000000000000000007bffffffffffffffffffffffffffffffffffffffffffffffffffffffff19166020820180517bffffffffffffffffffffffffffffffffffffffffffffffffffffffff83818316178352505050506111b8565b5050565b611036838383604051602401610fb493929190611896565b6040516020818303038152906040527f1c7ec448000000000000000000000000000000000000000000000000000000007bffffffffffffffffffffffffffffffffffffffffffffffffffffffff19166020820180517bffffffffffffffffffffffffffffffffffffffffffffffffffffffff83818316178352505050506111b8565b505050565b8073ffffffffffffffffffffffffffffffffffffffff166108fc839081150290604051600060405180830381858888f19350505050158015611081573d6000803e3d6000fd5b505050565b61111c8160405160240161109a91906118d4565b6040516020818303038152906040527f41304fac000000000000000000000000000000000000000000000000000000007bffffffffffffffffffffffffffffffffffffffffffffffffffffffff19166020820180517bffffffffffffffffffffffffffffffffffffffffffffffffffffffff83818316178352505050506111b8565b50565b6111b5816040516024016111339190611905565b6040516020818303038152906040527f2d5b6cb9000000000000000000000000000000000000000000000000000000007bffffffffffffffffffffffffffffffffffffffffffffffffffffffff19166020820180517bffffffffffffffffffffffffffffffffffffffffffffffffffffffff83818316178352505050506111b8565b50565b6111cf816111c76111d26111f3565b63ffffffff16565b50565b60006a636f6e736f6c652e6c6f679050600080835160208501845afa505050565b6111fe819050919050565b611206611920565b565b6000819050919050565b61121b81611208565b82525050565b60006020820190506112366000830184611212565b92915050565b60008115159050919050565b6112518161123c565b82525050565b600060208201905061126c6000830184611248565b92915050565b600080fd5b61128081611208565b811461128b57600080fd5b50565b60008135905061129d81611277565b92915050565b600073ffffffffffffffffffffffffffffffffffffffff82169050919050565b60006112ce826112a3565b9050919050565b6112de816112c3565b81146112e957600080fd5b50565b6000813590506112fb816112d5565b92915050565b6000806040838503121561131857611317611272565b5b60006113268582860161128e565b9250506020611337858286016112ec565b9150509250929050565b600061134c826112a3565b9050919050565b61135c81611341565b82525050565b60006020820190506113776000830184611353565b92915050565b600082825260208201905092915050565b7f41554354494f4e204953205354494c4c20494e2050524f475245535300000000600082015250565b60006113c4601c8361137d565b91506113cf8261138e565b602082019050919050565b600060208201905081810360008301526113f3816113b7565b9050919050565b7f4e487b7100000000000000000000000000000000000000000000000000000000600052601160045260246000fd5b600061143482611208565b915061143f83611208565b925082820261144d81611208565b91508282048414831517611464576114636113fa565b5b5092915050565b7f4e487b7100000000000000000000000000000000000000000000000000000000600052601260045260246000fd5b60006114a582611208565b91506114b083611208565b9250826114c0576114bf61146b565b5b828204905092915050565b7f596f752068617665206e6f206d6f726520746f6b656e73206c65667420746f2060008201527f636f6c6c65637400000000000000000000000000000000000000000000000000602082015250565b600061152760278361137d565b9150611532826114cb565b604082019050919050565b600060208201905081810360008301526115568161151a565b9050919050565b611566816112c3565b82525050565b6000604082019050611581600083018561155d565b61158e6020830184611212565b9392505050565b61159e8161123c565b81146115a957600080fd5b50565b6000815190506115bb81611595565b92915050565b6000602082840312156115d7576115d6611272565b5b60006115e5848285016115ac565b91505092915050565b6000819050919050565b6000611603826115ee565b915061160e836115ee565b9250828203905081811260008412168282136000851215161715611635576116346113fa565b5b92915050565b600061164682611208565b915061165183611208565b9250828203905081811115611669576116686113fa565b5b92915050565b7f544f4b454e5320534f4c44204f55540000000000000000000000000000000000600082015250565b60006116a5600f8361137d565b91506116b08261166f565b602082019050919050565b600060208201905081810360008301526116d481611698565b9050919050565b7f41554354494f4e2054494d452048415320454c41505345440000000000000000600082015250565b600061171160188361137d565b915061171c826116db565b602082019050919050565b6000602082019050818103600083015261174081611704565b9050919050565b7f4e4f5420454e4f55474820455448000000000000000000000000000000000000600082015250565b600061177d600e8361137d565b915061178882611747565b602082019050919050565b600060208201905081810360008301526117ac81611770565b9050919050565b60006117be82611208565b91506117c983611208565b92508282019050808211156117e1576117e06113fa565b5b92915050565b600081519050919050565b60005b838110156118105780820151818401526020810190506117f5565b60008484015250505050565b6000601f19601f8301169050919050565b6000611838826117e7565b611842818561137d565b93506118528185602086016117f2565b61185b8161181c565b840191505092915050565b60006040820190508181036000830152611880818561182d565b905061188f6020830184611212565b9392505050565b600060608201905081810360008301526118b0818661182d565b90506118bf6020830185611212565b6118cc604083018461155d565b949350505050565b600060208201905081810360008301526118ee818461182d565b905092915050565b6118ff816115ee565b82525050565b600060208201905061191a60008301846118f6565b92915050565b7f4e487b7100000000000000000000000000000000000000000000000000000000600052605160045260246000fdfe53657474696e672041756374696f6e2073746174757320746f2066696e6973686564a264697066735822122047987a9e78e52cec3c95955d5c183780acd4c1e02aa6abe99f9c2bc6fe06311a64736f6c63430008140033",
  "devdoc": {
    "kind": "dev",
    "methods": {},
    "version": 1
  },
  "userdoc": {
    "kind": "user",
    "methods": {},
    "version": 1
  },
  "storageLayout": {
    "storage": [
      {
        "astId": 800,
        "contract": "contracts/DutchAuction.sol:DutchAuction",
        "label": "finalPrice",
        "offset": 0,
        "slot": "0",
        "type": "t_uint256"
      },
      {
        "astId": 806,
        "contract": "contracts/DutchAuction.sol:DutchAuction",
        "label": "auctionStake",
        "offset": 0,
        "slot": "1",
        "type": "t_mapping(t_address,t_uint256)"
      },
      {
        "astId": 809,
        "contract": "contracts/DutchAuction.sol:DutchAuction",
        "label": "totalStake",
        "offset": 0,
        "slot": "2",
        "type": "t_uint256"
      },
      {
        "astId": 812,
        "contract": "contracts/DutchAuction.sol:DutchAuction",
        "label": "wfcoin",
        "offset": 0,
        "slot": "3",
        "type": "t_contract(WFCoin)1417"
      },
      {
        "astId": 814,
        "contract": "contracts/DutchAuction.sol:DutchAuction",
        "label": "locked",
        "offset": 20,
        "slot": "3",
        "type": "t_bool"
      },
      {
        "astId": 816,
        "contract": "contracts/DutchAuction.sol:DutchAuction",
        "label": "AuctionFinished",
        "offset": 21,
        "slot": "3",
        "type": "t_bool"
      }
    ],
    "types": {
      "t_address": {
        "encoding": "inplace",
        "label": "address",
        "numberOfBytes": "20"
      },
      "t_bool": {
        "encoding": "inplace",
        "label": "bool",
        "numberOfBytes": "1"
      },
      "t_contract(WFCoin)1417": {
        "encoding": "inplace",
        "label": "contract WFCoin",
        "numberOfBytes": "20"
      },
      "t_mapping(t_address,t_uint256)": {
        "encoding": "mapping",
        "key": "t_address",
        "label": "mapping(address => uint256)",
        "numberOfBytes": "32",
        "value": "t_uint256"
      },
      "t_uint256": {
        "encoding": "inplace",
        "label": "uint256",
        "numberOfBytes": "32"
      }
    }
  }
}