{
  "address": "0x5FbDB2315678afecb367f032d93F642f64180aa3",
  "abi": [
    {
      "inputs": [
        {
          "internalType": "uint256",
          "name": "initialSupply",
          "type": "uint256"
        }
      ],
      "stateMutability": "nonpayable",
      "type": "constructor"
    },
    {
      "inputs": [
        {
          "internalType": "address",
          "name": "spender",
          "type": "address"
        },
        {
          "internalType": "uint256",
          "name": "allowance",
          "type": "uint256"
        },
        {
          "internalType": "uint256",
          "name": "needed",
          "type": "uint256"
        }
      ],
      "name": "ERC20InsufficientAllowance",
      "type": "error"
    },
    {
      "inputs": [
        {
          "internalType": "address",
          "name": "sender",
          "type": "address"
        },
        {
          "internalType": "uint256",
          "name": "balance",
          "type": "uint256"
        },
        {
          "internalType": "uint256",
          "name": "needed",
          "type": "uint256"
        }
      ],
      "name": "ERC20InsufficientBalance",
      "type": "error"
    },
    {
      "inputs": [
        {
          "internalType": "address",
          "name": "approver",
          "type": "address"
        }
      ],
      "name": "ERC20InvalidApprover",
      "type": "error"
    },
    {
      "inputs": [
        {
          "internalType": "address",
          "name": "receiver",
          "type": "address"
        }
      ],
      "name": "ERC20InvalidReceiver",
      "type": "error"
    },
    {
      "inputs": [
        {
          "internalType": "address",
          "name": "sender",
          "type": "address"
        }
      ],
      "name": "ERC20InvalidSender",
      "type": "error"
    },
    {
      "inputs": [
        {
          "internalType": "address",
          "name": "spender",
          "type": "address"
        }
      ],
      "name": "ERC20InvalidSpender",
      "type": "error"
    },
    {
      "anonymous": false,
      "inputs": [
        {
          "indexed": true,
          "internalType": "address",
          "name": "owner",
          "type": "address"
        },
        {
          "indexed": true,
          "internalType": "address",
          "name": "spender",
          "type": "address"
        },
        {
          "indexed": false,
          "internalType": "uint256",
          "name": "value",
          "type": "uint256"
        }
      ],
      "name": "Approval",
      "type": "event"
    },
    {
      "anonymous": false,
      "inputs": [
        {
          "indexed": true,
          "internalType": "address",
          "name": "from",
          "type": "address"
        },
        {
          "indexed": true,
          "internalType": "address",
          "name": "to",
          "type": "address"
        },
        {
          "indexed": false,
          "internalType": "uint256",
          "name": "value",
          "type": "uint256"
        }
      ],
      "name": "Transfer",
      "type": "event"
    },
    {
      "inputs": [
        {
          "internalType": "address",
          "name": "owner",
          "type": "address"
        },
        {
          "internalType": "address",
          "name": "spender",
          "type": "address"
        }
      ],
      "name": "allowance",
      "outputs": [
        {
          "internalType": "uint256",
          "name": "",
          "type": "uint256"
        }
      ],
      "stateMutability": "view",
      "type": "function"
    },
    {
      "inputs": [
        {
          "internalType": "address",
          "name": "spender",
          "type": "address"
        },
        {
          "internalType": "uint256",
          "name": "value",
          "type": "uint256"
        }
      ],
      "name": "approve",
      "outputs": [
        {
          "internalType": "bool",
          "name": "",
          "type": "bool"
        }
      ],
      "stateMutability": "nonpayable",
      "type": "function"
    },
    {
      "inputs": [
        {
          "internalType": "address",
          "name": "account",
          "type": "address"
        }
      ],
      "name": "balanceOf",
      "outputs": [
        {
          "internalType": "uint256",
          "name": "",
          "type": "uint256"
        }
      ],
      "stateMutability": "view",
      "type": "function"
    },
    {
      "inputs": [
        {
          "internalType": "address",
          "name": "newOwner",
          "type": "address"
        }
      ],
      "name": "changeOwner",
      "outputs": [],
      "stateMutability": "nonpayable",
      "type": "function"
    },
    {
      "inputs": [],
      "name": "decimals",
      "outputs": [
        {
          "internalType": "uint8",
          "name": "",
          "type": "uint8"
        }
      ],
      "stateMutability": "view",
      "type": "function"
    },
    {
      "inputs": [],
      "name": "name",
      "outputs": [
        {
          "internalType": "string",
          "name": "",
          "type": "string"
        }
      ],
      "stateMutability": "view",
      "type": "function"
    },
    {
      "inputs": [],
      "name": "symbol",
      "outputs": [
        {
          "internalType": "string",
          "name": "",
          "type": "string"
        }
      ],
      "stateMutability": "view",
      "type": "function"
    },
    {
      "inputs": [],
      "name": "totalSupply",
      "outputs": [
        {
          "internalType": "uint256",
          "name": "",
          "type": "uint256"
        }
      ],
      "stateMutability": "view",
      "type": "function"
    },
    {
      "inputs": [
        {
          "internalType": "address",
          "name": "to",
          "type": "address"
        },
        {
          "internalType": "uint256",
          "name": "amount",
          "type": "uint256"
        }
      ],
      "name": "transfer",
      "outputs": [
        {
          "internalType": "bool",
          "name": "",
          "type": "bool"
        }
      ],
      "stateMutability": "nonpayable",
      "type": "function"
    },
    {
      "inputs": [
        {
          "internalType": "address",
          "name": "from",
          "type": "address"
        },
        {
          "internalType": "address",
          "name": "to",
          "type": "address"
        },
        {
          "internalType": "uint256",
          "name": "value",
          "type": "uint256"
        }
      ],
      "name": "transferFrom",
      "outputs": [
        {
          "internalType": "bool",
          "name": "",
          "type": "bool"
        }
      ],
      "stateMutability": "nonpayable",
      "type": "function"
    }
  ],
  "transactionHash": "0x1a6518a7339319746bcf05cfb5819fac8d7d73b72ac003fe4f8c4afbccda9d99",
  "args": [
    1000
  ],
  "numDeployments": 1,
  "solcInputHash": "4eca6abae169d7e6b34d796f938b78f3",
  "bytecode": "0x60806040523480156200001157600080fd5b5060405162001b2038038062001b20833981810160405281019062000037919062000456565b6040518060400160405280600581526020017f57616966750000000000000000000000000000000000000000000000000000008152506040518060400160405280600381526020017f57464300000000000000000000000000000000000000000000000000000000008152508160039081620000b49190620006f8565b508060049081620000c69190620006f8565b5050506200010830620000de6200015060201b60201c565b60ff16600a620000ef919062000962565b83620000fc9190620009b3565b6200015960201b60201c565b33600560006101000a81548173ffffffffffffffffffffffffffffffffffffffff021916908373ffffffffffffffffffffffffffffffffffffffff1602179055505062000b06565b60006012905090565b600073ffffffffffffffffffffffffffffffffffffffff168273ffffffffffffffffffffffffffffffffffffffff1603620001ce5760006040517fec442f05000000000000000000000000000000000000000000000000000000008152600401620001c5919062000a43565b60405180910390fd5b620001e260008383620001e660201b60201c565b5050565b600073ffffffffffffffffffffffffffffffffffffffff168373ffffffffffffffffffffffffffffffffffffffff16036200023c5780600260008282546200022f919062000a60565b9250508190555062000312565b60008060008573ffffffffffffffffffffffffffffffffffffffff1673ffffffffffffffffffffffffffffffffffffffff16815260200190815260200160002054905081811015620002cb578381836040517fe450d38c000000000000000000000000000000000000000000000000000000008152600401620002c29392919062000aac565b60405180910390fd5b8181036000808673ffffffffffffffffffffffffffffffffffffffff1673ffffffffffffffffffffffffffffffffffffffff16815260200190815260200160002081905550505b600073ffffffffffffffffffffffffffffffffffffffff168273ffffffffffffffffffffffffffffffffffffffff16036200035d5780600260008282540392505081905550620003aa565b806000808473ffffffffffffffffffffffffffffffffffffffff1673ffffffffffffffffffffffffffffffffffffffff168152602001908152602001600020600082825401925050819055505b8173ffffffffffffffffffffffffffffffffffffffff168373ffffffffffffffffffffffffffffffffffffffff167fddf252ad1be2c89b69c2b068fc378daa952ba7f163c4a11628f55a4df523b3ef8360405162000409919062000ae9565b60405180910390a3505050565b600080fd5b6000819050919050565b62000430816200041b565b81146200043c57600080fd5b50565b600081519050620004508162000425565b92915050565b6000602082840312156200046f576200046e62000416565b5b60006200047f848285016200043f565b91505092915050565b600081519050919050565b7f4e487b7100000000000000000000000000000000000000000000000000000000600052604160045260246000fd5b7f4e487b7100000000000000000000000000000000000000000000000000000000600052602260045260246000fd5b600060028204905060018216806200050a57607f821691505b60208210810362000520576200051f620004c2565b5b50919050565b60008190508160005260206000209050919050565b60006020601f8301049050919050565b600082821b905092915050565b6000600883026200058a7fffffffffffffffffffffffffffffffffffffffffffffffffffffffffffffffff826200054b565b6200059686836200054b565b95508019841693508086168417925050509392505050565b6000819050919050565b6000620005d9620005d3620005cd846200041b565b620005ae565b6200041b565b9050919050565b6000819050919050565b620005f583620005b8565b6200060d6200060482620005e0565b84845462000558565b825550505050565b600090565b6200062462000615565b62000631818484620005ea565b505050565b5b8181101562000659576200064d6000826200061a565b60018101905062000637565b5050565b601f821115620006a857620006728162000526565b6200067d846200053b565b810160208510156200068d578190505b620006a56200069c856200053b565b83018262000636565b50505b505050565b600082821c905092915050565b6000620006cd60001984600802620006ad565b1980831691505092915050565b6000620006e88383620006ba565b9150826002028217905092915050565b620007038262000488565b67ffffffffffffffff8111156200071f576200071e62000493565b5b6200072b8254620004f1565b620007388282856200065d565b600060209050601f8311600181146200077057600084156200075b578287015190505b620007678582620006da565b865550620007d7565b601f198416620007808662000526565b60005b82811015620007aa5784890151825560018201915060208501945060208101905062000783565b86831015620007ca5784890151620007c6601f891682620006ba565b8355505b6001600288020188555050505b505050505050565b7f4e487b7100000000000000000000000000000000000000000000000000000000600052601160045260246000fd5b60008160011c9050919050565b6000808291508390505b60018511156200086d57808604811115620008455762000844620007df565b5b6001851615620008555780820291505b808102905062000865856200080e565b945062000825565b94509492505050565b6000826200088857600190506200095b565b816200089857600090506200095b565b8160018114620008b15760028114620008bc57620008f2565b60019150506200095b565b60ff841115620008d157620008d0620007df565b5b8360020a915084821115620008eb57620008ea620007df565b5b506200095b565b5060208310610133831016604e8410600b84101617156200092c5782820a905083811115620009265762000925620007df565b5b6200095b565b6200093b84848460016200081b565b92509050818404811115620009555762000954620007df565b5b81810290505b9392505050565b60006200096f826200041b565b91506200097c836200041b565b9250620009ab7fffffffffffffffffffffffffffffffffffffffffffffffffffffffffffffffff848462000876565b905092915050565b6000620009c0826200041b565b9150620009cd836200041b565b9250828202620009dd816200041b565b91508282048414831517620009f757620009f6620007df565b5b5092915050565b600073ffffffffffffffffffffffffffffffffffffffff82169050919050565b600062000a2b82620009fe565b9050919050565b62000a3d8162000a1e565b82525050565b600060208201905062000a5a600083018462000a32565b92915050565b600062000a6d826200041b565b915062000a7a836200041b565b925082820190508082111562000a955762000a94620007df565b5b92915050565b62000aa6816200041b565b82525050565b600060608201905062000ac3600083018662000a32565b62000ad2602083018562000a9b565b62000ae1604083018462000a9b565b949350505050565b600060208201905062000b00600083018462000a9b565b92915050565b61100a8062000b166000396000f3fe608060405234801561001057600080fd5b506004361061009e5760003560e01c806370a082311161006657806370a082311461015d57806395d89b411461018d578063a6f9dae1146101ab578063a9059cbb146101c7578063dd62ed3e146101f75761009e565b806306fdde03146100a3578063095ea7b3146100c157806318160ddd146100f157806323b872dd1461010f578063313ce5671461013f575b600080fd5b6100ab610227565b6040516100b89190610bf2565b60405180910390f35b6100db60048036038101906100d69190610cad565b6102b9565b6040516100e89190610d08565b60405180910390f35b6100f96102dc565b6040516101069190610d32565b60405180910390f35b61012960048036038101906101249190610d4d565b6102e6565b6040516101369190610d08565b60405180910390f35b610147610315565b6040516101549190610dbc565b60405180910390f35b61017760048036038101906101729190610dd7565b61031e565b6040516101849190610d32565b60405180910390f35b610195610366565b6040516101a29190610bf2565b60405180910390f35b6101c560048036038101906101c09190610dd7565b6103f8565b005b6101e160048036038101906101dc9190610cad565b6104cc565b6040516101ee9190610d08565b60405180910390f35b610211600480360381019061020c9190610e04565b61053d565b60405161021e9190610d32565b60405180910390f35b60606003805461023690610e73565b80601f016020809104026020016040519081016040528092919081815260200182805461026290610e73565b80156102af5780601f10610284576101008083540402835291602001916102af565b820191906000526020600020905b81548152906001019060200180831161029257829003601f168201915b5050505050905090565b6000806102c46105c4565b90506102d18185856105cc565b600191505092915050565b6000600254905090565b6000806102f16105c4565b90506102fe8582856105de565b610309858585610672565b60019150509392505050565b60006012905090565b60008060008373ffffffffffffffffffffffffffffffffffffffff1673ffffffffffffffffffffffffffffffffffffffff168152602001908152602001600020549050919050565b60606004805461037590610e73565b80601f01602080910402602001604051908101604052809291908181526020018280546103a190610e73565b80156103ee5780601f106103c3576101008083540402835291602001916103ee565b820191906000526020600020905b8154815290600101906020018083116103d157829003601f168201915b5050505050905090565b600560009054906101000a900473ffffffffffffffffffffffffffffffffffffffff1673ffffffffffffffffffffffffffffffffffffffff163373ffffffffffffffffffffffffffffffffffffffff1614610488576040517f08c379a000000000000000000000000000000000000000000000000000000000815260040161047f90610ef0565b60405180910390fd5b80600560006101000a81548173ffffffffffffffffffffffffffffffffffffffff021916908373ffffffffffffffffffffffffffffffffffffffff16021790555050565b6000600560009054906101000a900473ffffffffffffffffffffffffffffffffffffffff1673ffffffffffffffffffffffffffffffffffffffff163373ffffffffffffffffffffffffffffffffffffffff161461052857600080fd5b610533308484610672565b6001905092915050565b6000600160008473ffffffffffffffffffffffffffffffffffffffff1673ffffffffffffffffffffffffffffffffffffffff16815260200190815260200160002060008373ffffffffffffffffffffffffffffffffffffffff1673ffffffffffffffffffffffffffffffffffffffff16815260200190815260200160002054905092915050565b600033905090565b6105d98383836001610766565b505050565b60006105ea848461053d565b90507fffffffffffffffffffffffffffffffffffffffffffffffffffffffffffffffff811461066c578181101561065c578281836040517ffb8f41b200000000000000000000000000000000000000000000000000000000815260040161065393929190610f1f565b60405180910390fd5b61066b84848484036000610766565b5b50505050565b600073ffffffffffffffffffffffffffffffffffffffff168373ffffffffffffffffffffffffffffffffffffffff16036106e45760006040517f96c6fd1e0000000000000000000000000000000000000000000000000000000081526004016106db9190610f56565b60405180910390fd5b600073ffffffffffffffffffffffffffffffffffffffff168273ffffffffffffffffffffffffffffffffffffffff16036107565760006040517fec442f0500000000000000000000000000000000000000000000000000000000815260040161074d9190610f56565b60405180910390fd5b61076183838361093d565b505050565b600073ffffffffffffffffffffffffffffffffffffffff168473ffffffffffffffffffffffffffffffffffffffff16036107d85760006040517fe602df050000000000000000000000000000000000000000000000000000000081526004016107cf9190610f56565b60405180910390fd5b600073ffffffffffffffffffffffffffffffffffffffff168373ffffffffffffffffffffffffffffffffffffffff160361084a5760006040517f94280d620000000000000000000000000000000000000000000000000000000081526004016108419190610f56565b60405180910390fd5b81600160008673ffffffffffffffffffffffffffffffffffffffff1673ffffffffffffffffffffffffffffffffffffffff16815260200190815260200160002060008573ffffffffffffffffffffffffffffffffffffffff1673ffffffffffffffffffffffffffffffffffffffff168152602001908152602001600020819055508015610937578273ffffffffffffffffffffffffffffffffffffffff168473ffffffffffffffffffffffffffffffffffffffff167f8c5be1e5ebec7d5bd14f71427d1e84f3dd0314c0f7b2291e5b200ac8c7c3b9258460405161092e9190610d32565b60405180910390a35b50505050565b600073ffffffffffffffffffffffffffffffffffffffff168373ffffffffffffffffffffffffffffffffffffffff160361098f5780600260008282546109839190610fa0565b92505081905550610a62565b60008060008573ffffffffffffffffffffffffffffffffffffffff1673ffffffffffffffffffffffffffffffffffffffff16815260200190815260200160002054905081811015610a1b578381836040517fe450d38c000000000000000000000000000000000000000000000000000000008152600401610a1293929190610f1f565b60405180910390fd5b8181036000808673ffffffffffffffffffffffffffffffffffffffff1673ffffffffffffffffffffffffffffffffffffffff16815260200190815260200160002081905550505b600073ffffffffffffffffffffffffffffffffffffffff168273ffffffffffffffffffffffffffffffffffffffff1603610aab5780600260008282540392505081905550610af8565b806000808473ffffffffffffffffffffffffffffffffffffffff1673ffffffffffffffffffffffffffffffffffffffff168152602001908152602001600020600082825401925050819055505b8173ffffffffffffffffffffffffffffffffffffffff168373ffffffffffffffffffffffffffffffffffffffff167fddf252ad1be2c89b69c2b068fc378daa952ba7f163c4a11628f55a4df523b3ef83604051610b559190610d32565b60405180910390a3505050565b600081519050919050565b600082825260208201905092915050565b60005b83811015610b9c578082015181840152602081019050610b81565b60008484015250505050565b6000601f19601f8301169050919050565b6000610bc482610b62565b610bce8185610b6d565b9350610bde818560208601610b7e565b610be781610ba8565b840191505092915050565b60006020820190508181036000830152610c0c8184610bb9565b905092915050565b600080fd5b600073ffffffffffffffffffffffffffffffffffffffff82169050919050565b6000610c4482610c19565b9050919050565b610c5481610c39565b8114610c5f57600080fd5b50565b600081359050610c7181610c4b565b92915050565b6000819050919050565b610c8a81610c77565b8114610c9557600080fd5b50565b600081359050610ca781610c81565b92915050565b60008060408385031215610cc457610cc3610c14565b5b6000610cd285828601610c62565b9250506020610ce385828601610c98565b9150509250929050565b60008115159050919050565b610d0281610ced565b82525050565b6000602082019050610d1d6000830184610cf9565b92915050565b610d2c81610c77565b82525050565b6000602082019050610d476000830184610d23565b92915050565b600080600060608486031215610d6657610d65610c14565b5b6000610d7486828701610c62565b9350506020610d8586828701610c62565b9250506040610d9686828701610c98565b9150509250925092565b600060ff82169050919050565b610db681610da0565b82525050565b6000602082019050610dd16000830184610dad565b92915050565b600060208284031215610ded57610dec610c14565b5b6000610dfb84828501610c62565b91505092915050565b60008060408385031215610e1b57610e1a610c14565b5b6000610e2985828601610c62565b9250506020610e3a85828601610c62565b9150509250929050565b7f4e487b7100000000000000000000000000000000000000000000000000000000600052602260045260246000fd5b60006002820490506001821680610e8b57607f821691505b602082108103610e9e57610e9d610e44565b5b50919050565b7f596f7520617265206e6f74206f776e6572000000000000000000000000000000600082015250565b6000610eda601183610b6d565b9150610ee582610ea4565b602082019050919050565b60006020820190508181036000830152610f0981610ecd565b9050919050565b610f1981610c39565b82525050565b6000606082019050610f346000830186610f10565b610f416020830185610d23565b610f4e6040830184610d23565b949350505050565b6000602082019050610f6b6000830184610f10565b92915050565b7f4e487b7100000000000000000000000000000000000000000000000000000000600052601160045260246000fd5b6000610fab82610c77565b9150610fb683610c77565b9250828201905080821115610fce57610fcd610f71565b5b9291505056fea2646970667358221220b3de25cb3fbf5e808c3003d666cb5f793ae551133e692de8071bc4651f7e31ba64736f6c63430008140033",
  "devdoc": {
    "errors": {
      "ERC20InsufficientAllowance(address,uint256,uint256)": [
        {
          "details": "Indicates a failure with the `spender`s `allowance`. Used in transfers.",
          "params": {
            "allowance": "Amount of tokens a `spender` is allowed to operate with.",
            "needed": "Minimum amount required to perform a transfer.",
            "spender": "Address that may be allowed to operate on tokens without being their owner."
          }
        }
      ],
      "ERC20InsufficientBalance(address,uint256,uint256)": [
        {
          "details": "Indicates an error related to the current `balance` of a `sender`. Used in transfers.",
          "params": {
            "balance": "Current balance for the interacting account.",
            "needed": "Minimum amount required to perform a transfer.",
            "sender": "Address whose tokens are being transferred."
          }
        }
      ],
      "ERC20InvalidApprover(address)": [
        {
          "details": "Indicates a failure with the `approver` of a token to be approved. Used in approvals.",
          "params": {
            "approver": "Address initiating an approval operation."
          }
        }
      ],
      "ERC20InvalidReceiver(address)": [
        {
          "details": "Indicates a failure with the token `receiver`. Used in transfers.",
          "params": {
            "receiver": "Address to which tokens are being transferred."
          }
        }
      ],
      "ERC20InvalidSender(address)": [
        {
          "details": "Indicates a failure with the token `sender`. Used in transfers.",
          "params": {
            "sender": "Address whose tokens are being transferred."
          }
        }
      ],
      "ERC20InvalidSpender(address)": [
        {
          "details": "Indicates a failure with the `spender` to be approved. Used in approvals.",
          "params": {
            "spender": "Address that may be allowed to operate on tokens without being their owner."
          }
        }
      ]
    },
    "events": {
      "Approval(address,address,uint256)": {
        "details": "Emitted when the allowance of a `spender` for an `owner` is set by a call to {approve}. `value` is the new allowance."
      },
      "Transfer(address,address,uint256)": {
        "details": "Emitted when `value` tokens are moved from one account (`from`) to another (`to`). Note that `value` may be zero."
      }
    },
    "kind": "dev",
    "methods": {
      "allowance(address,address)": {
        "details": "See {IERC20-allowance}."
      },
      "approve(address,uint256)": {
        "details": "See {IERC20-approve}. NOTE: If `value` is the maximum `uint256`, the allowance is not updated on `transferFrom`. This is semantically equivalent to an infinite approval. Requirements: - `spender` cannot be the zero address."
      },
      "balanceOf(address)": {
        "details": "See {IERC20-balanceOf}."
      },
      "decimals()": {
        "details": "Returns the number of decimals used to get its user representation. For example, if `decimals` equals `2`, a balance of `505` tokens should be displayed to a user as `5.05` (`505 / 10 ** 2`). Tokens usually opt for a value of 18, imitating the relationship between Ether and Wei. This is the default value returned by this function, unless it's overridden. NOTE: This information is only used for _display_ purposes: it in no way affects any of the arithmetic of the contract, including {IERC20-balanceOf} and {IERC20-transfer}."
      },
      "name()": {
        "details": "Returns the name of the token."
      },
      "symbol()": {
        "details": "Returns the symbol of the token, usually a shorter version of the name."
      },
      "totalSupply()": {
        "details": "See {IERC20-totalSupply}."
      },
      "transferFrom(address,address,uint256)": {
        "details": "See {IERC20-transferFrom}. Emits an {Approval} event indicating the updated allowance. This is not required by the EIP. See the note at the beginning of {ERC20}. NOTE: Does not update the allowance if the current allowance is the maximum `uint256`. Requirements: - `from` and `to` cannot be the zero address. - `from` must have a balance of at least `value`. - the caller must have allowance for ``from``'s tokens of at least `value`."
      }
    },
    "version": 1
  },
  "userdoc": {
    "kind": "user",
    "methods": {},
    "version": 1
  },
  "storageLayout": {
    "storage": [
      {
        "astId": 159,
        "contract": "contracts/WFCoin.sol:WFCoin",
        "label": "_balances",
        "offset": 0,
        "slot": "0",
        "type": "t_mapping(t_address,t_uint256)"
      },
      {
        "astId": 165,
        "contract": "contracts/WFCoin.sol:WFCoin",
        "label": "_allowances",
        "offset": 0,
        "slot": "1",
        "type": "t_mapping(t_address,t_mapping(t_address,t_uint256))"
      },
      {
        "astId": 167,
        "contract": "contracts/WFCoin.sol:WFCoin",
        "label": "_totalSupply",
        "offset": 0,
        "slot": "2",
        "type": "t_uint256"
      },
      {
        "astId": 169,
        "contract": "contracts/WFCoin.sol:WFCoin",
        "label": "_name",
        "offset": 0,
        "slot": "3",
        "type": "t_string_storage"
      },
      {
        "astId": 171,
        "contract": "contracts/WFCoin.sol:WFCoin",
        "label": "_symbol",
        "offset": 0,
        "slot": "4",
        "type": "t_string_storage"
      },
      {
        "astId": 1231,
        "contract": "contracts/WFCoin.sol:WFCoin",
        "label": "owner",
        "offset": 0,
        "slot": "5",
        "type": "t_address"
      }
    ],
    "types": {
      "t_address": {
        "encoding": "inplace",
        "label": "address",
        "numberOfBytes": "20"
      },
      "t_mapping(t_address,t_mapping(t_address,t_uint256))": {
        "encoding": "mapping",
        "key": "t_address",
        "label": "mapping(address => mapping(address => uint256))",
        "numberOfBytes": "32",
        "value": "t_mapping(t_address,t_uint256)"
      },
      "t_mapping(t_address,t_uint256)": {
        "encoding": "mapping",
        "key": "t_address",
        "label": "mapping(address => uint256)",
        "numberOfBytes": "32",
        "value": "t_uint256"
      },
      "t_string_storage": {
        "encoding": "bytes",
        "label": "string",
        "numberOfBytes": "32"
      },
      "t_uint256": {
        "encoding": "inplace",
        "label": "uint256",
        "numberOfBytes": "32"
      }
    }
  }
}